:08000000803102288731F22F44
:1005FE00013422009D131D1108000B178B120B12D4
:10060E00080021001908873968389900080064002D
:10061E0080010131890B0F2B003424009614200029
:10062E00911D162B91110800240016142000911D07
:10063E001D2B91110800240016152000911D242B4E
:10064E009111080024001508F0390838950027305C
:10065E0092009516080023009E161E159D171D1656
:10066E009F1508309B009C010800F00070082400C4
:10067E0091002000911D402B9111240016080800B6
:10068E007808F0007908F100F2018E30FB007B084B
:10069E00F300F4018431F9247008F8007108F900B0
:1006AE007208FA000800F000700C2400031C961269
:1006BE000318961696152000911D622B9111240099
:1006CE0016162000911D682B9111240011080800A8
:1006DE00F40083311B238331743583313C23833102
:1006EE00710883313C238331720883313C2383317B
:1006FE00730883313C238331833122230800200089
:10070E0045084404430403198E2B8030C506460861
:10071E00F8004708F9004808FA004308FB004408AF
:10072E00FC004508FD008631FD2678082000C30038
:10073E007908C4007A08C5000800F50083311B2330
:10074E008331753583313C238331710883313C23EA
:10075E0083318331142383310314750D83313C238C
:10076E008331003083315A238331F300F40173084F
:10077E002000B2007408B3003208F400F3017308CD
:10078E00B2007408B300013083315A238331F30071
:10079E00F40173082000B2077408B33D833122239D
:1007AE0020003308F2003208F10008007708F80044
:1007BE0078082000AE00FB01760877040319E92BB8
:1007CE00FB01FB0A7B08F8007808AF008B30840031
:1007DE00883085000008F8007808F1002E08F9002E
:1007EE007908F2002F08FA007A08F30088308400A6
:1007FE0088308500000883316F2383318B3084006D
:10080E00883085000008F8007808F10088308400F0
:10081E008830850000088331A42372082000B100BF
:10082E007108B00008008C30840088308500000804
:10083E00F6007608F10088308400883085000008C4
:10084E008331A423843172082000B7007108B600EA
:10085E008D308400883085000008F6007608F1009F
:10086E00883084008830850000088331A4238431C9
:10087E0072082000B9007108B8008E3084008830EC
:10088E0085000008F6007608F10088308400883074
:10089E00850000088331A42372082000BB00710874
:1008AE00BA003630080083310823843183310423A3
:1008BE008431833100238431833132238431833177
:1008CE0029238431FF30F600FF30F7008331DD231A
:1008DE00843184311A2484312000CD004D08D0009B
:1008EE0085315D25843120004908D1004A08D200A7
:1008FE004B08D3008431A824843120004608D4004C
:10090E004708D5004808D6005108F0005208F100FB
:10091E005308F2008531C425843170082000CD00C3
:10092E004D08CE005408F0005508F1005608F200AC
:10093E008531C425843170082000CD004D08CF00CC
:10094E00772C8A3084008830850000082000C9008A
:10095E004908F10088308400883085000008833112
:10096E00A42384317208F9007108F80083314723FB
:10097E00843178082000A4007908A5007A08A60022
:10098E000030F8008030F9003730FA002408FB0000
:10099E002508FC002608FD0086314A268431780899
:1009AE002000A4007908A5007A08A6000030F800FF
:1009BE00C830F9004230FA002408FB002508FC007C
:1009CE002608FD0086314A2678082000A400790802
:1009DE00A5007A08A6002408C6002508C700260828
:1009EE00C800080073080319012D72087104700401
:1009FE00031D122D0030F0000030F1000030F20027
:100A0E0008000130F5007508F3070130F236F10CDD
:100A1E00F00C890B0D2DFE30720503192B2D082DB0
:100A2E000130F5007508F3070130F00700300318A8
:100A3E000130F107003003180130F2070130F236B1
:100A4E00F10CF00C890B262DFF3072050319382D91
:100A5E00172D0130F3020130F035F10DF20D890B37
:100A6E00332DF11B3E2D023073020318302D7318F7
:100A7E00462DFF30F0057F30F105FF30F2050310F3
:100A8E00F30C7308F500F601F7011030F535F60D8D
:100A9E00F70D890B4D2D7508F0047608F1047708D3
:100AAE00F204740803190800F21708008930840054
:100ABE008830850000082000CC004C08F1008830FA
:100ACE0084008830850000088331A42385317208A4
:100ADE00F9007108F800833147238531780820002A
:100AEE00A7007908A8007A08A9000030F800803025
:100AFE00F9003730FA002708FB002808FC00290807
:100B0E00FD0086314A26853178082000A700790835
:100B1E00A8007A08A9000030F8002530F90043300B
:100B2E00FA002708FB002808FC002908FD00863182
:100B3E004A26853178082000A7007908A8007A088F
:100B4E00A9000030C3002030C4004230C500270881
:100B5E00C6002808C7002908C80083318623200054
:100B6E004308A7004408A8004508A9002708C900A3
:100B7E002808CA002908CB0008007008F400710884
:100B8E00F5007208F6000310750D760DF700770864
:100B9E00FD007D08031DDC2D0030F3000030F20057
:100BAE000030F1000030F00008007008F400710809
:100BBE00F5007208F6001730F636F50CF40C890BBA
:100BCE00E32D7408F7007708F800F117FF30F005F1
:100BDE00FF30F1050030F2057008F9007108FA00D7
:100BEE007208FB00FC018E30FD02FD1F1A2E7D08DF
:100BFE00803A8F3E03180C2E0030F3000030F200C6
:100C0E000030F1000030F00008000130FC36FB0C23
:100C1E00FA0CF90C890B0D2E0130F4007408FD0747
:100C2E000319332E0C2E18307D02031C302E00308B
:100C3E00F3000030F2000030F1000030F000080048
:100C4E000130F935FA0DFB0DFC0D890B282E013004
:100C5E00FD027D08031D272E78080319412EF90980
:100C6E00FA09FB09FC09F90A0319FA0A0319FB0A26
:100C7E000319FC0A7C08F3007B08F2007A08F100E5
:100C8E007908F000080078082000BC007908BD0043
:100C9E007A08BE0003103D0D3E0DBF003F08C00098
:100CAE004008031D612E0030F8000030F9000030BE
:100CBE00FA0008007B08BC007C08BD007D08BE0061
:100CCE0003103D0D3E0DBF003F08C5004508031D36
:100CDE00772E0030F8000030F9000030FA000800DE
:100CEE0045087B3EBC003C08C0077808BC0079086C
:100CFE00BD007A08BE001030BE36BD0CBC0C890B90
:100D0E00832E3C08BF003F08C5007B08BC007C0852
:100D1E00BD007D08BE001030BE36BD0CBC0C890B6C
:100D2E00932E3C08BF003F08C5068030BC003C082F
:100D3E00C505F917FC17FF30FB05FF30FC05003029
:100D4E00FD050030C1000030C2000030C300073086
:100D5E00BC003C08C400781CBA2E7B08C1077C0876
:100D6E00C23D7D08C33D0130FA36F90CF80C890BF3
:100D7E00BB2E0130FB35FC0DFD0D890BC12E013054
:100D8E00C402031DB22E0930BC003C08C400781CFE
:100D9E00D62E7B08C1077C08C23D7D08C33D0130BD
:100DAE00FA36F90CF80C890BD72E0130C336C20C6B
:100DBE00C10C890BDD2E0130C402031DCE2E41085D
:100DCE00F0004208F1004308F2004008BC003C0865
:100DDE00F3004508BD003D08F4008431F924700885
:100DEE00F8007108F9007208FA000800780820006F
:100DFE00BC007908BD007A08BE0003103D0D3E0D03
:100E0E00BF003F08C2007B08BC007C08BD007D0807
:100E1E00BE0003103D0D3E0DBF003F08C10042084D
:100E2E000319252F4108420203182C2F4203FF3AC3
:100E3E004107BC0019303C02031C2C2F7B08F80024
:100E4E007C08F9007D08FA00080041080319080023
:100E5E004208410203183B2F4103FF3A4207BC00F0
:100E6E0019303C02031808000630BC003C08C000D4
:100E7E00FA1BC017FD1B4017F917FF30F805FF309E
:100E8E00F9050030FA05FC17FF30FB05FF30FC05B5
:100E9E000030FD05410842020318772F0130FB3563
:100EAE00FC0DFD0D890B562F0130C1024108420683
:100EBE000319722F0130C002400807390319722F2F
:100ECE00552F0130FA36F90CF80C890B692F0130C9
:100EDE00BC003C08C2074208410603199C2F682F2C
:100EEE004208410203189C2F0130F835F90DFA0D16
:100EFE00890B7C2F0130C202410842060319982F3C
:100F0E000130C002400807390319982F7B2F01309A
:100F1E00FD36FC0CFB0C890B8F2F0130BC003C08FE
:100F2E00C10742084106031D8E2FC01FAE2FFF3092
:100F3E00F806FF30F906FF30FA060130F8070030E8
:100F4E0003180130F907003003180130FA07401F6B
:100F5E00C02FFF30FB06FF30FC06FF30FD060130D0
:100F6E00FB07003003180130FC0700300318013076
:100F7E00FD07C0017808FB077908FC3D7A08FD3DA6
:100F8E00FD1FDB2FFF30FB06FF30FC06FF30FD069A
:100F9E000130FB07003003180130FC070030031846
:100FAE000130FD07C001C00A7B08F0007C08F1008B
:100FBE007D08F2004208BC003C08F3004008BD006A
:100FCE003D08F4008431F9247008F8007108F90026
:100FDE007208FA0008008231FF228731D7002030D4
:100FEE008400003085001C3083310E2320008431B4
:100FFE005A2C413454342B34003452345334543438
:10100E00003447344D3452340034473453344C3466
:10101E005034003452344534533454344F345234F3
:10102E004534003453344C34453445345034003454
:10103E00573441344B34453455345034473450349E
:10104E0049344F340034433457344D344F344434E0
:10105E0045345F34433455345234003443345734BA
:10106E004C34413450340034433457344A344134D0
:10107E00503400340D340A340034413454342B349B
:10108E000034523453345434003447344D345234D3
:10109E000034473453344C345034003452344534D5
:1010AE00533454344F3452344534003453344C3466
:1010BE004534453450340034573441344B34453480
:1010CE00553450344734503449344F34003443345B
:1010DE0057344D344F34443445345F3443345534EF
:1010EE0052340034433457344C3441345034003489
:1010FE00433457344A344134503400340D340A34B6
:10110E0000344034003401340234FB34FC34FD34FA
:10111E00FE34FF34433468346134723461346334E2
:10112E007434653472342034723465346334693403
:10113E0065347634653464343A34203400340D34F6
:0A114E000A340034413454340034F4
:020000040001F9
:04000E00A4FFFFFF4D
:00000001FF
